:100000000C9446000C9465000C9465000C946500FB
:100010000C9465000C9465000C9465000C946500CC
:100020000C9465000C9465000C9465000C946500BC
:100030000C9465000C94A3000C9465000C9465006E
:100040000C9465000C9465000C9465000C9465009C
:100050000C9465000C9465000C9465000C9465008C
:100060000C9465000C9465000C9465000C9465007C
:100070000C9465000C9465000C9465000C9465006C
:100080000C9465000C9465000C94650011241FBE4F
:10009000CFEFD0E4DEBFCDBF11E0A0E0B1E0EAEFEA
:1000A000F2E000E00BBF02C007900D92A231B10751
:1000B000D9F711E0A2E1B1E001C01D92AA31B10768
:1000C000E1F70E9460010C947B010C940000CF9337
:1000D000C82F8A3019F48DE00E9467009091C0000B
:1000E00095FFFCCFC093C60080E090E0CF910895CB
:1000F0008BE0809381008DE790E09093890080935E
:10010000880082E080936F00109285001092840036
:100110008091000190910101A0910201B091030131
:100120008093120190931301A0931401B0931501D1
:100130008FB780688FBF089510928100089581E085
:100140008093160108951F920F920FB60F921124FB
:100150000BB60F922F933F934F935F936F937F93C1
:100160008F939F93AF93BF93EF93FF93809112016F
:1001700090911301A0911401B09115010197A1096B
:10018000B1098093120190931301A0931401B093CD
:100190001501892B8A2B8B2B91F40E949F00809153
:1001A000000190910101A0910201B091030180939F
:1001B000120190931301A0931401B0931501FF91C4
:1001C000EF91BF91AF919F918F917F916F915F91CF
:1001D0004F913F912F910F900BBE0F900FBE0F903C
:1001E0001F901895609300017093010180930201A4
:1001F0009093030160931201709313018093140193
:1002000090931501089520B12095217081309105BA
:10021000A9F01CF4892B41F020C08230910599F09F
:1002200083309105A9F019C081E0809319011092E3
:1002300018011092170181E090E011C0222379F09B
:1002400082E090E00CC0222351F083E090E007C0F0
:10025000222329F082E090E002C080E090E082302A
:10026000910551F520911801223068F43091170161
:1002700030FD09C030911901330F309319012F5F00
:10028000209318010EC0223060F43091170130FF26
:1002900008C0309119013695309319012F5F2093D2
:1002A000180120911801223039F4209117012F5F95
:1002B00020931701109218012091190128B908956F
:1002C0008FEF87B991E098B911B882B964E670E010
:1002D00080E090E00E94F2000E94780020E030E090
:1002E000C9010E9403019C01909116019923E1F339
:0A02F00010921601F5CFF894FFCF2D
:1002FA00010000000000000200000000670000008A
:02030A000000F1
:00000001FF
