:100000000C9446000C9465000C9465000C946500FB
:100010000C9465000C9465000C9465000C946500CC
:100020000C9465000C9465000C9465000C946500BC
:100030000C9465000C94A3000C9465000C9465006E
:100040000C9465000C9465000C9465000C9465009C
:100050000C9465000C9465000C9465000C9465008C
:100060000C9465000C9465000C9465000C9465007C
:100070000C9465000C9465000C9465000C9465006C
:100080000C9465000C9465000C94650011241FBE4F
:10009000CFEFD0E4DEBFCDBF11E0A0E0B1E0E2E2FF
:1000A000F4E000E00BBF02C007900D92A231B1074F
:1000B000D9F711E0A2E1B1E001C01D92AB31B10767
:1000C000E1F70E94F3010C940F020C940000CF930F
:1000D000C82F8A3019F48DE00E9467009091C0000B
:1000E00095FFFCCFC093C60080E090E0CF910895CB
:1000F0008BE0809381008DE790E09093890080935E
:10010000880082E080936F00109285001092840036
:100110008091000190910101A0910201B091030131
:100120008093130190931401A0931501B0931601CD
:100130008FB780688FBF089510928100089581E085
:100140008093170108951F920F920FB60F921124FA
:100150000BB60F922F933F934F935F936F937F93C1
:100160008F939F93AF93BF93EF93FF93809113016E
:1001700090911401A0911501B09116010197A10968
:10018000B1098093130190931401A0931501B093CA
:100190001601892B8A2B8B2B91F40E949F00809152
:1001A000000190910101A0910201B091030180939F
:1001B000130190931401A0931501B0931601FF91C0
:1001C000EF91BF91AF919F918F917F916F915F91CF
:1001D0004F913F912F910F900BBE0F900FBE0F903C
:1001E0001F901895609300017093010180930201A4
:1001F0009093030160931301709314018093150190
:1002000090931601089580B18095817090B190957A
:1002100092702091190130911A012230310509F4B0
:1002200041C038F42115310569F02130310589F0DC
:10023000A1C02330310509F456C02430310509F43A
:1002400071C098C081E090E090931A0180931901E9
:1002500091C0882341F0911106C022E030E0309334
:100260001A0120931901811108C0992331F023E06C
:1002700030E030931A0120931901882341F099232B
:1002800031F024E030E030931A01209319018111FC
:1002900071C091116FC081E090E090931A0180933A
:1002A000190168C0882341F0911106C022E030E0B6
:1002B00030931A0120931901811108C0992331F05C
:1002C00023E030E030931A0120931901882309F4C8
:1002D00051C0992309F44EC084E090E090931A0134
:1002E0008093190147C0882341F0911106C022E094
:1002F00030E030931A0120931901811108C099232D
:1003000031F023E030E030931A0120931901882363
:1003100089F1992379F184E090E090931A01809318
:10032000190128C0882341F0911106C022E030E075
:1003300030931A0120931901811108C0992331F0DB
:1003400023E030E030931A0120931901882341F013
:10035000992331F024E030E030931A012093190101
:10036000811108C0911106C081E090E090931A01BC
:10037000809319018091190190911A0182309105A1
:1003800071F018F4019739F02AC083309105B1F06B
:10039000049719F124C087E08093180120C0809150
:1003A00012018F5F80931201809118018930B8F497
:1003B0008F5F809318011092120111C08091120179
:1003C0008F5F8093120180911801882341F0815042
:1003D000809318011092120102C0109218018091AE
:1003E000180188B9089511B88FEF82B987B918B884
:1003F0001092180110921A011092190164E670E02F
:1004000080E090E00E94F2000E9478000E940301C8
:10041000809117018823E1F310921701F7CFF89428
:02042000FFCF0C
:100422000100000000000002000000006700000060
:020432000000C8
:00000001FF
